{"abi":[{"type":"constructor","inputs":[],"stateMutability":"nonpayable"},{"type":"function","name":"BurnAndRefund","inputs":[{"name":"tokenId","type":"uint256","internalType":"uint256"}],"outputs":[],"stateMutability":"nonpayable"},{"type":"function","name":"approve","inputs":[{"name":"to","type":"address","internalType":"address"},{"name":"tokenId","type":"uint256","internalType":"uint256"}],"outputs":[],"stateMutability":"nonpayable"},{"type":"function","name":"balanceOf","inputs":[{"name":"owner","type":"address","internalType":"address"}],"outputs":[{"name":"","type":"uint256","internalType":"uint256"}],"stateMutability":"view"},{"type":"function","name":"burn","inputs":[{"name":"tokenId","type":"uint256","internalType":"uint256"}],"outputs":[],"stateMutability":"nonpayable"},{"type":"function","name":"getApproved","inputs":[{"name":"tokenId","type":"uint256","internalType":"uint256"}],"outputs":[{"name":"","type":"address","internalType":"address"}],"stateMutability":"view"},{"type":"function","name":"getLatestPrice","inputs":[],"outputs":[{"name":"","type":"int256","internalType":"int256"}],"stateMutability":"view"},{"type":"function","name":"isApprovedForAll","inputs":[{"name":"owner","type":"address","internalType":"address"},{"name":"operator","type":"address","internalType":"address"}],"outputs":[{"name":"","type":"bool","internalType":"bool"}],"stateMutability":"view"},{"type":"function","name":"mint","inputs":[],"outputs":[],"stateMutability":"payable"},{"type":"function","name":"name","inputs":[],"outputs":[{"name":"","type":"string","internalType":"string"}],"stateMutability":"view"},{"type":"function","name":"owner","inputs":[],"outputs":[{"name":"","type":"address","internalType":"address"}],"stateMutability":"view"},{"type":"function","name":"ownerOf","inputs":[{"name":"tokenId","type":"uint256","internalType":"uint256"}],"outputs":[{"name":"","type":"address","internalType":"address"}],"stateMutability":"view"},{"type":"function","name":"renounceOwnership","inputs":[],"outputs":[],"stateMutability":"nonpayable"},{"type":"function","name":"safeTransferFrom","inputs":[{"name":"from","type":"address","internalType":"address"},{"name":"to","type":"address","internalType":"address"},{"name":"tokenId","type":"uint256","internalType":"uint256"}],"outputs":[],"stateMutability":"nonpayable"},{"type":"function","name":"safeTransferFrom","inputs":[{"name":"from","type":"address","internalType":"address"},{"name":"to","type":"address","internalType":"address"},{"name":"tokenId","type":"uint256","internalType":"uint256"},{"name":"data","type":"bytes","internalType":"bytes"}],"outputs":[],"stateMutability":"nonpayable"},{"type":"function","name":"setApprovalForAll","inputs":[{"name":"operator","type":"address","internalType":"address"},{"name":"approved","type":"bool","internalType":"bool"}],"outputs":[],"stateMutability":"nonpayable"},{"type":"function","name":"supportsInterface","inputs":[{"name":"interfaceId","type":"bytes4","internalType":"bytes4"}],"outputs":[{"name":"","type":"bool","internalType":"bool"}],"stateMutability":"view"},{"type":"function","name":"symbol","inputs":[],"outputs":[{"name":"","type":"string","internalType":"string"}],"stateMutability":"view"},{"type":"function","name":"tokenFees","inputs":[{"name":"","type":"uint256","internalType":"uint256"}],"outputs":[{"name":"","type":"uint256","internalType":"uint256"}],"stateMutability":"view"},{"type":"function","name":"tokenURI","inputs":[{"name":"tokenId","type":"uint256","internalType":"uint256"}],"outputs":[{"name":"","type":"string","internalType":"string"}],"stateMutability":"view"},{"type":"function","name":"transferFrom","inputs":[{"name":"from","type":"address","internalType":"address"},{"name":"to","type":"address","internalType":"address"},{"name":"tokenId","type":"uint256","internalType":"uint256"}],"outputs":[],"stateMutability":"nonpayable"},{"type":"function","name":"transferOwnership","inputs":[{"name":"newOwner","type":"address","internalType":"address"}],"outputs":[],"stateMutability":"nonpayable"},{"type":"function","name":"usdMintPrice","inputs":[],"outputs":[{"name":"","type":"uint256","internalType":"uint256"}],"stateMutability":"view"},{"type":"event","name":"Approval","inputs":[{"name":"owner","type":"address","indexed":true,"internalType":"address"},{"name":"approved","type":"address","indexed":true,"internalType":"address"},{"name":"tokenId","type":"uint256","indexed":true,"internalType":"uint256"}],"anonymous":false},{"type":"event","name":"ApprovalForAll","inputs":[{"name":"owner","type":"address","indexed":true,"internalType":"address"},{"name":"operator","type":"address","indexed":true,"internalType":"address"},{"name":"approved","type":"bool","indexed":false,"internalType":"bool"}],"anonymous":false},{"type":"event","name":"OwnershipTransferred","inputs":[{"name":"previousOwner","type":"address","indexed":true,"internalType":"address"},{"name":"newOwner","type":"address","indexed":true,"internalType":"address"}],"anonymous":false},{"type":"event","name":"Transfer","inputs":[{"name":"from","type":"address","indexed":true,"internalType":"address"},{"name":"to","type":"address","indexed":true,"internalType":"address"},{"name":"tokenId","type":"uint256","indexed":true,"internalType":"uint256"}],"anonymous":false},{"type":"error","name":"ERC721IncorrectOwner","inputs":[{"name":"sender","type":"address","internalType":"address"},{"name":"tokenId","type":"uint256","internalType":"uint256"},{"name":"owner","type":"address","internalType":"address"}]},{"type":"error","name":"ERC721InsufficientApproval","inputs":[{"name":"operator","type":"address","internalType":"address"},{"name":"tokenId","type":"uint256","internalType":"uint256"}]},{"type":"error","name":"ERC721InvalidApprover","inputs":[{"name":"approver","type":"address","internalType":"address"}]},{"type":"error","name":"ERC721InvalidOperator","inputs":[{"name":"operator","type":"address","internalType":"address"}]},{"type":"error","name":"ERC721InvalidOwner","inputs":[{"name":"owner","type":"address","internalType":"address"}]},{"type":"error","name":"ERC721InvalidReceiver","inputs":[{"name":"receiver","type":"address","internalType":"address"}]},{"type":"error","name":"ERC721InvalidSender","inputs":[{"name":"sender","type":"address","internalType":"address"}]},{"type":"error","name":"ERC721NonexistentToken","inputs":[{"name":"tokenId","type":"uint256","internalType":"uint256"}]},{"type":"error","name":"InsufficientPayment","inputs":[]},{"type":"error","name":"NotOwner","inputs":[]},{"type":"error","name":"OwnableInvalidOwner","inputs":[{"name":"owner","type":"address","internalType":"address"}]},{"type":"error","name":"OwnableUnauthorizedAccount","inputs":[{"name":"account","type":"address","internalType":"address"}]},{"type":"error","name":"RefundFailed","inputs":[]},{"type":"error","name":"TransferFailed","inputs":[]}],"bytecode":{"object":"0x60806040526703782dace9d90000600a5534801561001b575f5ffd5b50336040518060400160405280600781526020017f4d79546f6b656e000000000000000000000000000000000000000000000000008152506040518060400160405280600381526020017f4d544b0000000000000000000000000000000000000000000000000000000000815250815f90816100979190610483565b5080600190816100a79190610483565b5050505f73ffffffffffffffffffffffffffffffffffffffff168173ffffffffffffffffffffffffffffffffffffffff160361011a575f6040517f1e4fbdf70000000000000000000000000000000000000000000000000000000081526004016101119190610591565b60405180910390fd5b6101298161018360201b60201c565b5073694aa1769357215de4fac081bf1f309adc32530660095f6101000a81548173ffffffffffffffffffffffffffffffffffffffff021916908373ffffffffffffffffffffffffffffffffffffffff1602179055506105aa565b5f60065f9054906101000a900473ffffffffffffffffffffffffffffffffffffffff1690508160065f6101000a81548173ffffffffffffffffffffffffffffffffffffffff021916908373ffffffffffffffffffffffffffffffffffffffff1602179055508173ffffffffffffffffffffffffffffffffffffffff168173ffffffffffffffffffffffffffffffffffffffff167f8be0079c531659141344cd1fd0a4f28419497f9722a3daafe3b4186f6b6457e060405160405180910390a35050565b5f81519050919050565b7f4e487b71000000000000000000000000000000000000000000000000000000005f52604160045260245ffd5b7f4e487b71000000000000000000000000000000000000000000000000000000005f52602260045260245ffd5b5f60028204905060018216806102c157607f821691505b6020821081036102d4576102d361027d565b5b50919050565b5f819050815f5260205f209050919050565b5f6020601f8301049050919050565b5f82821b905092915050565b5f600883026103367fffffffffffffffffffffffffffffffffffffffffffffffffffffffffffffffff826102fb565b61034086836102fb565b95508019841693508086168417925050509392505050565b5f819050919050565b5f819050919050565b5f61038461037f61037a84610358565b610361565b610358565b9050919050565b5f819050919050565b61039d8361036a565b6103b16103a98261038b565b848454610307565b825550505050565b5f5f905090565b6103c86103b9565b6103d3818484610394565b505050565b5b818110156103f6576103eb5f826103c0565b6001810190506103d9565b5050565b601f82111561043b5761040c816102da565b610415846102ec565b81016020851015610424578190505b610438610430856102ec565b8301826103d8565b50505b505050565b5f82821c905092915050565b5f61045b5f1984600802610440565b1980831691505092915050565b5f610473838361044c565b9150826002028217905092915050565b61048c82610246565b67ffffffffffffffff8111156104a5576104a4610250565b5b6104af82546102aa565b6104ba8282856103fa565b5f60209050601f8311600181146104eb575f84156104d9578287015190505b6104e38582610468565b86555061054a565b601f1984166104f9866102da565b5f5b82811015610520578489015182556001820191506020850194506020810190506104fb565b8683101561053d5784890151610539601f89168261044c565b8355505b6001600288020188555050505b505050505050565b5f73ffffffffffffffffffffffffffffffffffffffff82169050919050565b5f61057b82610552565b9050919050565b61058b81610571565b82525050565b5f6020820190506105a45f830184610582565b92915050565b612864806105b75f395ff3fe608060405260043610610134575f3560e01c80637b05c9df116100aa578063a22cb4651161006e578063a22cb465146103e2578063b88d4fde1461040a578063c87b56dd14610432578063d56c75091461046e578063e985e9c5146104aa578063f2fde38b146104e657610134565b80637b05c9df146103125780638da5cb5b1461033a5780638e15f4731461036457806395d89b411461038e5780639c33061c146103b857610134565b806323b872dd116100fc57806323b872dd1461020c57806342842e0e1461023457806342966c681461025c5780636352211e1461028457806370a08231146102c0578063715018a6146102fc57610134565b806301ffc9a71461013857806306fdde0314610174578063081812fc1461019e578063095ea7b3146101da5780631249c58b14610202575b5f5ffd5b348015610143575f5ffd5b5061015e60048036038101906101599190611e5c565b61050e565b60405161016b9190611ea1565b60405180910390f35b34801561017f575f5ffd5b506101886105ef565b6040516101959190611f2a565b60405180910390f35b3480156101a9575f5ffd5b506101c460048036038101906101bf9190611f7d565b61067e565b6040516101d19190611fe7565b60405180910390f35b3480156101e5575f5ffd5b5061020060048036038101906101fb919061202a565b610699565b005b61020a6106af565b005b348015610217575f5ffd5b50610232600480360381019061022d9190612068565b6108ca565b005b34801561023f575f5ffd5b5061025a60048036038101906102559190612068565b6109c9565b005b348015610267575f5ffd5b50610282600480360381019061027d9190611f7d565b6109e8565b005b34801561028f575f5ffd5b506102aa60048036038101906102a59190611f7d565b6109fe565b6040516102b79190611fe7565b60405180910390f35b3480156102cb575f5ffd5b506102e660048036038101906102e191906120b8565b610a0f565b6040516102f391906120f2565b60405180910390f35b348015610307575f5ffd5b50610310610ac5565b005b34801561031d575f5ffd5b5061033860048036038101906103339190611f7d565b610ad8565b005b348015610345575f5ffd5b5061034e610c07565b60405161035b9190611fe7565b60405180910390f35b34801561036f575f5ffd5b50610378610c2f565b6040516103859190612123565b60405180910390f35b348015610399575f5ffd5b506103a2610ccc565b6040516103af9190611f2a565b60405180910390f35b3480156103c3575f5ffd5b506103cc610d5c565b6040516103d991906120f2565b60405180910390f35b3480156103ed575f5ffd5b5061040860048036038101906104039190612166565b610d62565b005b348015610415575f5ffd5b50610430600480360381019061042b91906122d0565b610d78565b005b34801561043d575f5ffd5b5061045860048036038101906104539190611f7d565b610d9d565b6040516104659190611f2a565b60405180910390f35b348015610479575f5ffd5b50610494600480360381019061048f9190611f7d565b610e03565b6040516104a191906120f2565b60405180910390f35b3480156104b5575f5ffd5b506104d060048036038101906104cb9190612350565b610e18565b6040516104dd9190611ea1565b60405180910390f35b3480156104f1575f5ffd5b5061050c600480360381019061050791906120b8565b610ea6565b005b5f7f80ac58cd000000000000000000000000000000000000000000000000000000007bffffffffffffffffffffffffffffffffffffffffffffffffffffffff1916827bffffffffffffffffffffffffffffffffffffffffffffffffffffffff191614806105d857507f5b5e139f000000000000000000000000000000000000000000000000000000007bffffffffffffffffffffffffffffffffffffffffffffffffffffffff1916827bffffffffffffffffffffffffffffffffffffffffffffffffffffffff1916145b806105e857506105e782610f2a565b5b9050919050565b60605f80546105fd906123bb565b80601f0160208091040260200160405190810160405280929190818152602001828054610629906123bb565b80156106745780601f1061064b57610100808354040283529160200191610674565b820191905f5260205f20905b81548152906001019060200180831161065757829003601f168201915b5050505050905090565b5f61068882610f93565b5061069282611019565b9050919050565b6106ab82826106a6611052565b611059565b5050565b5f60095f9054906101000a900473ffffffffffffffffffffffffffffffffffffffff1673ffffffffffffffffffffffffffffffffffffffff1663feaf968c6040518163ffffffff1660e01b815260040160a060405180830381865afa15801561071a573d5f5f3e3d5ffd5b505050506040513d601f19601f8201168201806040525081019061073e9190612468565b5050509150505f8113610786576040517f08c379a000000000000000000000000000000000000000000000000000000000815260040161077d90612529565b60405180910390fd5b5f8190505f816305f5e100600a5461079e9190612574565b6107a891906125e2565b9050803410156107e4576040517fcd1c886700000000000000000000000000000000000000000000000000000000815260040160405180910390fd5b5f60085f8154809291906107f790612612565b919050559050610807338261106b565b3460075f8381526020019081526020015f20819055505f610826610c07565b73ffffffffffffffffffffffffffffffffffffffff163460405161084990612686565b5f6040518083038185875af1925050503d805f8114610883576040519150601f19603f3d011682016040523d82523d5f602084013e610888565b606091505b50509050806108c3576040517f90b8ec1800000000000000000000000000000000000000000000000000000000815260040160405180910390fd5b5050505050565b5f73ffffffffffffffffffffffffffffffffffffffff168273ffffffffffffffffffffffffffffffffffffffff160361093a575f6040517f64a0ae920000000000000000000000000000000000000000000000000000000081526004016109319190611fe7565b60405180910390fd5b5f61094d8383610948611052565b61115e565b90508373ffffffffffffffffffffffffffffffffffffffff168173ffffffffffffffffffffffffffffffffffffffff16146109c3578382826040517f64283d7b0000000000000000000000000000000000000000000000000000000081526004016109ba9392919061269a565b60405180910390fd5b50505050565b6109e383838360405180602001604052805f815250610d78565b505050565b6109fa5f826109f5611052565b61115e565b5050565b5f610a0882610f93565b9050919050565b5f5f73ffffffffffffffffffffffffffffffffffffffff168273ffffffffffffffffffffffffffffffffffffffff1603610a80575f6040517f89c62b64000000000000000000000000000000000000000000000000000000008152600401610a779190611fe7565b60405180910390fd5b60035f8373ffffffffffffffffffffffffffffffffffffffff1673ffffffffffffffffffffffffffffffffffffffff1681526020019081526020015f20549050919050565b610acd611369565b610ad65f6113f0565b565b3373ffffffffffffffffffffffffffffffffffffffff16610af8826109fe565b73ffffffffffffffffffffffffffffffffffffffff1614610b45576040517f30cd747100000000000000000000000000000000000000000000000000000000815260040160405180910390fd5b5f60075f8381526020019081526020015f20549050610b63826114b3565b5f3373ffffffffffffffffffffffffffffffffffffffff1682604051610b8890612686565b5f6040518083038185875af1925050503d805f8114610bc2576040519150601f19603f3d011682016040523d82523d5f602084013e610bc7565b606091505b5050905080610c02576040517ff0c49d4400000000000000000000000000000000000000000000000000000000815260040160405180910390fd5b505050565b5f60065f9054906101000a900473ffffffffffffffffffffffffffffffffffffffff16905090565b5f5f60095f9054906101000a900473ffffffffffffffffffffffffffffffffffffffff1673ffffffffffffffffffffffffffffffffffffffff1663feaf968c6040518163ffffffff1660e01b815260040160a060405180830381865afa158015610c9b573d5f5f3e3d5ffd5b505050506040513d601f19601f82011682018060405250810190610cbf9190612468565b5050509150508091505090565b606060018054610cdb906123bb565b80601f0160208091040260200160405190810160405280929190818152602001828054610d07906123bb565b8015610d525780601f10610d2957610100808354040283529160200191610d52565b820191905f5260205f20905b815481529060010190602001808311610d3557829003601f168201915b5050505050905090565b600a5481565b610d74610d6d611052565b8383611535565b5050565b610d838484846108ca565b610d97610d8e611052565b8585858561169e565b50505050565b6060610da882610f93565b505f610db261184a565b90505f815111610dd05760405180602001604052805f815250610dfb565b80610dda84611860565b604051602001610deb929190612709565b6040516020818303038152906040525b915050919050565b6007602052805f5260405f205f915090505481565b5f60055f8473ffffffffffffffffffffffffffffffffffffffff1673ffffffffffffffffffffffffffffffffffffffff1681526020019081526020015f205f8373ffffffffffffffffffffffffffffffffffffffff1673ffffffffffffffffffffffffffffffffffffffff1681526020019081526020015f205f9054906101000a900460ff16905092915050565b610eae611369565b5f73ffffffffffffffffffffffffffffffffffffffff168173ffffffffffffffffffffffffffffffffffffffff1603610f1e575f6040517f1e4fbdf7000000000000000000000000000000000000000000000000000000008152600401610f159190611fe7565b60405180910390fd5b610f27816113f0565b50565b5f7f01ffc9a7000000000000000000000000000000000000000000000000000000007bffffffffffffffffffffffffffffffffffffffffffffffffffffffff1916827bffffffffffffffffffffffffffffffffffffffffffffffffffffffff1916149050919050565b5f5f610f9e8361192a565b90505f73ffffffffffffffffffffffffffffffffffffffff168173ffffffffffffffffffffffffffffffffffffffff160361101057826040517f7e27328900000000000000000000000000000000000000000000000000000000815260040161100791906120f2565b60405180910390fd5b80915050919050565b5f60045f8381526020019081526020015f205f9054906101000a900473ffffffffffffffffffffffffffffffffffffffff169050919050565b5f33905090565b6110668383836001611963565b505050565b5f73ffffffffffffffffffffffffffffffffffffffff168273ffffffffffffffffffffffffffffffffffffffff16036110db575f6040517f64a0ae920000000000000000000000000000000000000000000000000000000081526004016110d29190611fe7565b60405180910390fd5b5f6110e783835f61115e565b90505f73ffffffffffffffffffffffffffffffffffffffff168173ffffffffffffffffffffffffffffffffffffffff1614611159575f6040517f73c6ac6e0000000000000000000000000000000000000000000000000000000081526004016111509190611fe7565b60405180910390fd5b505050565b5f5f6111698461192a565b90505f73ffffffffffffffffffffffffffffffffffffffff168373ffffffffffffffffffffffffffffffffffffffff16146111aa576111a9818486611b22565b5b5f73ffffffffffffffffffffffffffffffffffffffff168173ffffffffffffffffffffffffffffffffffffffff1614611235576111e95f855f5f611963565b600160035f8373ffffffffffffffffffffffffffffffffffffffff1673ffffffffffffffffffffffffffffffffffffffff1681526020019081526020015f205f82825403925050819055505b5f73ffffffffffffffffffffffffffffffffffffffff168573ffffffffffffffffffffffffffffffffffffffff16146112b457600160035f8773ffffffffffffffffffffffffffffffffffffffff1673ffffffffffffffffffffffffffffffffffffffff1681526020019081526020015f205f82825401925050819055505b8460025f8681526020019081526020015f205f6101000a81548173ffffffffffffffffffffffffffffffffffffffff021916908373ffffffffffffffffffffffffffffffffffffffff160217905550838573ffffffffffffffffffffffffffffffffffffffff168273ffffffffffffffffffffffffffffffffffffffff167fddf252ad1be2c89b69c2b068fc378daa952ba7f163c4a11628f55a4df523b3ef60405160405180910390a4809150509392505050565b611371611052565b73ffffffffffffffffffffffffffffffffffffffff1661138f610c07565b73ffffffffffffffffffffffffffffffffffffffff16146113ee576113b2611052565b6040517f118cdaa70000000000000000000000000000000000000000000000000000000081526004016113e59190611fe7565b60405180910390fd5b565b5f60065f9054906101000a900473ffffffffffffffffffffffffffffffffffffffff1690508160065f6101000a81548173ffffffffffffffffffffffffffffffffffffffff021916908373ffffffffffffffffffffffffffffffffffffffff1602179055508173ffffffffffffffffffffffffffffffffffffffff168173ffffffffffffffffffffffffffffffffffffffff167f8be0079c531659141344cd1fd0a4f28419497f9722a3daafe3b4186f6b6457e060405160405180910390a35050565b5f6114bf5f835f61115e565b90505f73ffffffffffffffffffffffffffffffffffffffff168173ffffffffffffffffffffffffffffffffffffffff160361153157816040517f7e27328900000000000000000000000000000000000000000000000000000000815260040161152891906120f2565b60405180910390fd5b5050565b5f73ffffffffffffffffffffffffffffffffffffffff168273ffffffffffffffffffffffffffffffffffffffff16036115a557816040517f5b08ba1800000000000000000000000000000000000000000000000000000000815260040161159c9190611fe7565b60405180910390fd5b8060055f8573ffffffffffffffffffffffffffffffffffffffff1673ffffffffffffffffffffffffffffffffffffffff1681526020019081526020015f205f8473ffffffffffffffffffffffffffffffffffffffff1673ffffffffffffffffffffffffffffffffffffffff1681526020019081526020015f205f6101000a81548160ff0219169083151502179055508173ffffffffffffffffffffffffffffffffffffffff168373ffffffffffffffffffffffffffffffffffffffff167f17307eab39ab6107e8899845ad3d59bd9653f200f220920489ca2b5937696c31836040516116919190611ea1565b60405180910390a3505050565b5f8373ffffffffffffffffffffffffffffffffffffffff163b1115611843578273ffffffffffffffffffffffffffffffffffffffff1663150b7a02868685856040518563ffffffff1660e01b81526004016116fc949392919061277e565b6020604051808303815f875af192505050801561173757506040513d601f19601f8201168201806040525081019061173491906127dc565b60015b6117b8573d805f8114611765576040519150601f19603f3d011682016040523d82523d5f602084013e61176a565b606091505b505f8151036117b057836040517f64a0ae920000000000000000000000000000000000000000000000000000000081526004016117a79190611fe7565b60405180910390fd5b805160208201fd5b63150b7a0260e01b7bffffffffffffffffffffffffffffffffffffffffffffffffffffffff1916817bffffffffffffffffffffffffffffffffffffffffffffffffffffffff19161461184157836040517f64a0ae920000000000000000000000000000000000000000000000000000000081526004016118389190611fe7565b60405180910390fd5b505b5050505050565b606060405180602001604052805f815250905090565b60605f600161186e84611be5565b0190505f8167ffffffffffffffff81111561188c5761188b6121ac565b5b6040519080825280601f01601f1916602001820160405280156118be5781602001600182028036833780820191505090505b5090505f82602083010190505b60011561191f578080600190039150507f3031323334353637383961626364656600000000000000000000000000000000600a86061a8153600a8581611914576119136125b5565b5b0494505f85036118cb575b819350505050919050565b5f60025f8381526020019081526020015f205f9054906101000a900473ffffffffffffffffffffffffffffffffffffffff169050919050565b808061199b57505f73ffffffffffffffffffffffffffffffffffffffff168273ffffffffffffffffffffffffffffffffffffffff1614155b15611acd575f6119aa84610f93565b90505f73ffffffffffffffffffffffffffffffffffffffff168373ffffffffffffffffffffffffffffffffffffffff1614158015611a1457508273ffffffffffffffffffffffffffffffffffffffff168173ffffffffffffffffffffffffffffffffffffffff1614155b8015611a275750611a258184610e18565b155b15611a6957826040517fa9fbf51f000000000000000000000000000000000000000000000000000000008152600401611a609190611fe7565b60405180910390fd5b8115611acb57838573ffffffffffffffffffffffffffffffffffffffff168273ffffffffffffffffffffffffffffffffffffffff167f8c5be1e5ebec7d5bd14f71427d1e84f3dd0314c0f7b2291e5b200ac8c7c3b92560405160405180910390a45b505b8360045f8581526020019081526020015f205f6101000a81548173ffffffffffffffffffffffffffffffffffffffff021916908373ffffffffffffffffffffffffffffffffffffffff16021790555050505050565b611b2d838383611d36565b611be0575f73ffffffffffffffffffffffffffffffffffffffff168373ffffffffffffffffffffffffffffffffffffffff1603611ba157806040517f7e273289000000000000000000000000000000000000000000000000000000008152600401611b9891906120f2565b60405180910390fd5b81816040517f177e802f000000000000000000000000000000000000000000000000000000008152600401611bd7929190612807565b60405180910390fd5b505050565b5f5f5f90507a184f03e93ff9f4daa797ed6e38ed64bf6a1f0100000000000000008310611c41577a184f03e93ff9f4daa797ed6e38ed64bf6a1f0100000000000000008381611c3757611c366125b5565b5b0492506040810190505b6d04ee2d6d415b85acef81000000008310611c7e576d04ee2d6d415b85acef81000000008381611c7457611c736125b5565b5b0492506020810190505b662386f26fc100008310611cad57662386f26fc100008381611ca357611ca26125b5565b5b0492506010810190505b6305f5e1008310611cd6576305f5e1008381611ccc57611ccb6125b5565b5b0492506008810190505b6127108310611cfb576127108381611cf157611cf06125b5565b5b0492506004810190505b60648310611d1e5760648381611d1457611d136125b5565b5b0492506002810190505b600a8310611d2d576001810190505b80915050919050565b5f5f73ffffffffffffffffffffffffffffffffffffffff168373ffffffffffffffffffffffffffffffffffffffff1614158015611ded57508273ffffffffffffffffffffffffffffffffffffffff168473ffffffffffffffffffffffffffffffffffffffff161480611dae5750611dad8484610e18565b5b80611dec57508273ffffffffffffffffffffffffffffffffffffffff16611dd483611019565b73ffffffffffffffffffffffffffffffffffffffff16145b5b90509392505050565b5f604051905090565b5f5ffd5b5f5ffd5b5f7fffffffff0000000000000000000000000000000000000000000000000000000082169050919050565b611e3b81611e07565b8114611e45575f5ffd5b50565b5f81359050611e5681611e32565b92915050565b5f60208284031215611e7157611e70611dff565b5b5f611e7e84828501611e48565b91505092915050565b5f8115159050919050565b611e9b81611e87565b82525050565b5f602082019050611eb45f830184611e92565b92915050565b5f81519050919050565b5f82825260208201905092915050565b8281835e5f83830152505050565b5f601f19601f8301169050919050565b5f611efc82611eba565b611f068185611ec4565b9350611f16818560208601611ed4565b611f1f81611ee2565b840191505092915050565b5f6020820190508181035f830152611f428184611ef2565b905092915050565b5f819050919050565b611f5c81611f4a565b8114611f66575f5ffd5b50565b5f81359050611f7781611f53565b92915050565b5f60208284031215611f9257611f91611dff565b5b5f611f9f84828501611f69565b91505092915050565b5f73ffffffffffffffffffffffffffffffffffffffff82169050919050565b5f611fd182611fa8565b9050919050565b611fe181611fc7565b82525050565b5f602082019050611ffa5f830184611fd8565b92915050565b61200981611fc7565b8114612013575f5ffd5b50565b5f8135905061202481612000565b92915050565b5f5f604083850312156120405761203f611dff565b5b5f61204d85828601612016565b925050602061205e85828601611f69565b9150509250929050565b5f5f5f6060848603121561207f5761207e611dff565b5b5f61208c86828701612016565b935050602061209d86828701612016565b92505060406120ae86828701611f69565b9150509250925092565b5f602082840312156120cd576120cc611dff565b5b5f6120da84828501612016565b91505092915050565b6120ec81611f4a565b82525050565b5f6020820190506121055f8301846120e3565b92915050565b5f819050919050565b61211d8161210b565b82525050565b5f6020820190506121365f830184612114565b92915050565b61214581611e87565b811461214f575f5ffd5b50565b5f813590506121608161213c565b92915050565b5f5f6040838503121561217c5761217b611dff565b5b5f61218985828601612016565b925050602061219a85828601612152565b9150509250929050565b5f5ffd5b5f5ffd5b7f4e487b71000000000000000000000000000000000000000000000000000000005f52604160045260245ffd5b6121e282611ee2565b810181811067ffffffffffffffff82111715612201576122006121ac565b5b80604052505050565b5f612213611df6565b905061221f82826121d9565b919050565b5f67ffffffffffffffff82111561223e5761223d6121ac565b5b61224782611ee2565b9050602081019050919050565b828183375f83830152505050565b5f61227461226f84612224565b61220a565b9050828152602081018484840111156122905761228f6121a8565b5b61229b848285612254565b509392505050565b5f82601f8301126122b7576122b66121a4565b5b81356122c7848260208601612262565b91505092915050565b5f5f5f5f608085870312156122e8576122e7611dff565b5b5f6122f587828801612016565b945050602061230687828801612016565b935050604061231787828801611f69565b925050606085013567ffffffffffffffff81111561233857612337611e03565b5b612344878288016122a3565b91505092959194509250565b5f5f6040838503121561236657612365611dff565b5b5f61237385828601612016565b925050602061238485828601612016565b9150509250929050565b7f4e487b71000000000000000000000000000000000000000000000000000000005f52602260045260245ffd5b5f60028204905060018216806123d257607f821691505b6020821081036123e5576123e461238e565b5b50919050565b5f69ffffffffffffffffffff82169050919050565b612409816123eb565b8114612413575f5ffd5b50565b5f8151905061242481612400565b92915050565b6124338161210b565b811461243d575f5ffd5b50565b5f8151905061244e8161242a565b92915050565b5f8151905061246281611f53565b92915050565b5f5f5f5f5f60a0868803121561248157612480611dff565b5b5f61248e88828901612416565b955050602061249f88828901612440565b94505060406124b088828901612454565b93505060606124c188828901612454565b92505060806124d288828901612416565b9150509295509295909350565b7f496e76616c6964204554482070726963650000000000000000000000000000005f82015250565b5f612513601183611ec4565b915061251e826124df565b602082019050919050565b5f6020820190508181035f83015261254081612507565b9050919050565b7f4e487b71000000000000000000000000000000000000000000000000000000005f52601160045260245ffd5b5f61257e82611f4a565b915061258983611f4a565b925082820261259781611f4a565b915082820484148315176125ae576125ad612547565b5b5092915050565b7f4e487b71000000000000000000000000000000000000000000000000000000005f52601260045260245ffd5b5f6125ec82611f4a565b91506125f783611f4a565b925082612607576126066125b5565b5b828204905092915050565b5f61261c82611f4a565b91507fffffffffffffffffffffffffffffffffffffffffffffffffffffffffffffffff820361264e5761264d612547565b5b600182019050919050565b5f81905092915050565b50565b5f6126715f83612659565b915061267c82612663565b5f82019050919050565b5f61269082612666565b9150819050919050565b5f6060820190506126ad5f830186611fd8565b6126ba60208301856120e3565b6126c76040830184611fd8565b949350505050565b5f81905092915050565b5f6126e382611eba565b6126ed81856126cf565b93506126fd818560208601611ed4565b80840191505092915050565b5f61271482856126d9565b915061272082846126d9565b91508190509392505050565b5f81519050919050565b5f82825260208201905092915050565b5f6127508261272c565b61275a8185612736565b935061276a818560208601611ed4565b61277381611ee2565b840191505092915050565b5f6080820190506127915f830187611fd8565b61279e6020830186611fd8565b6127ab60408301856120e3565b81810360608301526127bd8184612746565b905095945050505050565b5f815190506127d681611e32565b92915050565b5f602082840312156127f1576127f0611dff565b5b5f6127fe848285016127c8565b91505092915050565b5f60408201905061281a5f830185611fd8565b61282760208301846120e3565b939250505056fea264697066735822122029964dead4e5e139e3b6c194098ae66b8be0ed4b4f716933f4f5eace3bce693e64736f6c634300081e0033","linkReferences":{}},"methodIdentifiers":{"BurnAndRefund(uint256)":"7b05c9df","approve(address,uint256)":"095ea7b3","balanceOf(address)":"70a08231","burn(uint256)":"42966c68","getApproved(uint256)":"081812fc","getLatestPrice()":"8e15f473","isApprovedForAll(address,address)":"e985e9c5","mint()":"1249c58b","name()":"06fdde03","owner()":"8da5cb5b","ownerOf(uint256)":"6352211e","renounceOwnership()":"715018a6","safeTransferFrom(address,address,uint256)":"42842e0e","safeTransferFrom(address,address,uint256,bytes)":"b88d4fde","setApprovalForAll(address,bool)":"a22cb465","supportsInterface(bytes4)":"01ffc9a7","symbol()":"95d89b41","tokenFees(uint256)":"d56c7509","tokenURI(uint256)":"c87b56dd","transferFrom(address,address,uint256)":"23b872dd","transferOwnership(address)":"f2fde38b","usdMintPrice()":"9c33061c"},"id":17}